{
  "_format": "hh-sol-artifact-1",
  "contractName": "Bridge",
  "sourceName": "contracts/bridge.sol",
  "abi": [
    {
      "inputs": [
        {
          "internalType": "address",
          "name": "_relay",
          "type": "address"
        },
        {
          "internalType": "address",
          "name": "_token",
          "type": "address"
        }
      ],
      "stateMutability": "nonpayable",
      "type": "constructor"
    },
    {
      "anonymous": false,
      "inputs": [
        {
          "indexed": true,
          "internalType": "bytes32",
          "name": "",
          "type": "bytes32"
        }
      ],
      "name": "LockEvent",
      "type": "event"
    },
    {
      "anonymous": false,
      "inputs": [
        {
          "indexed": true,
          "internalType": "bytes32",
          "name": "",
          "type": "bytes32"
        },
        {
          "indexed": false,
          "internalType": "uint256",
          "name": "amount",
          "type": "uint256"
        }
      ],
      "name": "RedeemEvent",
      "type": "event"
    },
    {
      "anonymous": false,
      "inputs": [
        {
          "indexed": true,
          "internalType": "bytes32",
          "name": "",
          "type": "bytes32"
        },
        {
          "indexed": false,
          "internalType": "uint256",
          "name": "amount",
          "type": "uint256"
        }
      ],
      "name": "ReleaseEvent",
      "type": "event"
    },
    {
      "anonymous": false,
      "inputs": [
        {
          "indexed": true,
          "internalType": "bytes32",
          "name": "",
          "type": "bytes32"
        }
      ],
      "name": "RevertRequestEvent",
      "type": "event"
    },
    {
      "anonymous": false,
      "inputs": [
        {
          "indexed": true,
          "internalType": "bytes32",
          "name": "",
          "type": "bytes32"
        },
        {
          "indexed": true,
          "internalType": "enum Bridge.TransferState",
          "name": "",
          "type": "uint8"
        }
      ],
      "name": "RevertResponseEvent",
      "type": "event"
    },
    {
      "anonymous": false,
      "inputs": [
        {
          "indexed": false,
          "internalType": "uint256",
          "name": "amount",
          "type": "uint256"
        }
      ],
      "name": "SupplyEvent",
      "type": "event"
    },
    {
      "inputs": [],
      "name": "approve",
      "outputs": [],
      "stateMutability": "nonpayable",
      "type": "function"
    },
    {
      "inputs": [],
      "name": "balance",
      "outputs": [
        {
          "internalType": "uint256",
          "name": "",
          "type": "uint256"
        }
      ],
      "stateMutability": "view",
      "type": "function"
    },
    {
      "inputs": [
        {
          "internalType": "address",
          "name": "newOwner",
          "type": "address"
        }
      ],
      "name": "changeOwner",
      "outputs": [],
      "stateMutability": "nonpayable",
      "type": "function"
    },
    {
      "inputs": [
        {
          "components": [
            {
              "internalType": "bytes32",
              "name": "id",
              "type": "bytes32"
            },
            {
              "internalType": "uint256",
              "name": "from_chain_id",
              "type": "uint256"
            },
            {
              "internalType": "uint256",
              "name": "to_chain_id",
              "type": "uint256"
            },
            {
              "internalType": "address",
              "name": "from_address",
              "type": "address"
            },
            {
              "internalType": "address",
              "name": "to_address",
              "type": "address"
            },
            {
              "internalType": "address",
              "name": "from_token",
              "type": "address"
            },
            {
              "internalType": "address",
              "name": "to_token",
              "type": "address"
            },
            {
              "internalType": "uint256",
              "name": "amount",
              "type": "uint256"
            },
            {
              "internalType": "enum Bridge.TransferState",
              "name": "state",
              "type": "uint8"
            }
          ],
          "internalType": "struct Bridge.TransferRecord",
          "name": "record",
          "type": "tuple"
        }
      ],
      "name": "handle_lock",
      "outputs": [],
      "stateMutability": "nonpayable",
      "type": "function"
    },
    {
      "inputs": [
        {
          "internalType": "bytes32",
          "name": "id",
          "type": "bytes32"
        }
      ],
      "name": "handle_revert_request",
      "outputs": [],
      "stateMutability": "nonpayable",
      "type": "function"
    },
    {
      "inputs": [
        {
          "internalType": "bytes32",
          "name": "id",
          "type": "bytes32"
        },
        {
          "internalType": "enum Bridge.TransferState",
          "name": "state",
          "type": "uint8"
        }
      ],
      "name": "handle_revert_response",
      "outputs": [],
      "stateMutability": "nonpayable",
      "type": "function"
    },
    {
      "inputs": [
        {
          "internalType": "uint256",
          "name": "amount",
          "type": "uint256"
        }
      ],
      "name": "handle_supply",
      "outputs": [],
      "stateMutability": "nonpayable",
      "type": "function"
    },
    {
      "inputs": [],
      "name": "kill",
      "outputs": [],
      "stateMutability": "nonpayable",
      "type": "function"
    },
    {
      "inputs": [
        {
          "internalType": "uint256",
          "name": "to_chain_id",
          "type": "uint256"
        },
        {
          "internalType": "address",
          "name": "to_address",
          "type": "address"
        },
        {
          "internalType": "address",
          "name": "from_token",
          "type": "address"
        },
        {
          "internalType": "address",
          "name": "to_token",
          "type": "address"
        },
        {
          "internalType": "uint256",
          "name": "amount",
          "type": "uint256"
        }
      ],
      "name": "lock",
      "outputs": [],
      "stateMutability": "nonpayable",
      "type": "function"
    },
    {
      "inputs": [],
      "name": "owner",
      "outputs": [
        {
          "internalType": "address",
          "name": "",
          "type": "address"
        }
      ],
      "stateMutability": "view",
      "type": "function"
    },
    {
      "inputs": [],
      "name": "peer_balance",
      "outputs": [
        {
          "internalType": "uint256",
          "name": "",
          "type": "uint256"
        }
      ],
      "stateMutability": "view",
      "type": "function"
    },
    {
      "inputs": [
        {
          "internalType": "bytes32",
          "name": "",
          "type": "bytes32"
        }
      ],
      "name": "records",
      "outputs": [
        {
          "internalType": "bytes32",
          "name": "id",
          "type": "bytes32"
        },
        {
          "internalType": "uint256",
          "name": "from_chain_id",
          "type": "uint256"
        },
        {
          "internalType": "uint256",
          "name": "to_chain_id",
          "type": "uint256"
        },
        {
          "internalType": "address",
          "name": "from_address",
          "type": "address"
        },
        {
          "internalType": "address",
          "name": "to_address",
          "type": "address"
        },
        {
          "internalType": "address",
          "name": "from_token",
          "type": "address"
        },
        {
          "internalType": "address",
          "name": "to_token",
          "type": "address"
        },
        {
          "internalType": "uint256",
          "name": "amount",
          "type": "uint256"
        },
        {
          "internalType": "enum Bridge.TransferState",
          "name": "state",
          "type": "uint8"
        }
      ],
      "stateMutability": "view",
      "type": "function"
    },
    {
      "inputs": [
        {
          "internalType": "bytes32",
          "name": "id",
          "type": "bytes32"
        }
      ],
      "name": "redeem",
      "outputs": [],
      "stateMutability": "nonpayable",
      "type": "function"
    },
    {
      "inputs": [],
      "name": "relay",
      "outputs": [
        {
          "internalType": "address",
          "name": "",
          "type": "address"
        }
      ],
      "stateMutability": "view",
      "type": "function"
    },
    {
      "inputs": [
        {
          "internalType": "bytes32",
          "name": "id",
          "type": "bytes32"
        }
      ],
      "name": "release",
      "outputs": [],
      "stateMutability": "nonpayable",
      "type": "function"
    },
    {
      "inputs": [
        {
          "internalType": "bytes32",
          "name": "id",
          "type": "bytes32"
        }
      ],
      "name": "revert_request",
      "outputs": [],
      "stateMutability": "nonpayable",
      "type": "function"
    },
    {
      "inputs": [
        {
          "internalType": "address",
          "name": "",
          "type": "address"
        }
      ],
      "name": "setRelay",
      "outputs": [],
      "stateMutability": "nonpayable",
      "type": "function"
    },
    {
      "inputs": [
        {
          "internalType": "uint256",
          "name": "amount",
          "type": "uint256"
        }
      ],
      "name": "supply",
      "outputs": [],
      "stateMutability": "nonpayable",
      "type": "function"
    },
    {
      "inputs": [],
      "name": "token",
      "outputs": [
        {
          "internalType": "address",
          "name": "",
          "type": "address"
        }
      ],
      "stateMutability": "view",
      "type": "function"
    },
    {
      "inputs": [
        {
          "internalType": "address",
          "name": "",
          "type": "address"
        }
      ],
      "name": "withdrawal",
      "outputs": [],
      "stateMutability": "nonpayable",
      "type": "function"
    }
  ],
  "bytecode": "0x60806040523480156200001157600080fd5b50604051620035423803806200354283398181016040528101906200003791906200018b565b600073ffffffffffffffffffffffffffffffffffffffff168173ffffffffffffffffffffffffffffffffffffffff161415620000aa576040517f08c379a0000000000000000000000000000000000000000000000000000000008152600401620000a190620001f3565b60405180910390fd5b336000806101000a81548173ffffffffffffffffffffffffffffffffffffffff021916908373ffffffffffffffffffffffffffffffffffffffff16021790555081600160006101000a81548173ffffffffffffffffffffffffffffffffffffffff021916908373ffffffffffffffffffffffffffffffffffffffff16021790555080600260006101000a81548173ffffffffffffffffffffffffffffffffffffffff021916908373ffffffffffffffffffffffffffffffffffffffff16021790555050506200029d565b600081519050620001858162000283565b92915050565b600080604083850312156200019f57600080fd5b6000620001af8582860162000174565b9250506020620001c28582860162000174565b9150509250929050565b6000620001db601a8362000215565b9150620001e8826200025a565b602082019050919050565b600060208201905081810360008301526200020e81620001cc565b9050919050565b600082825260208201905092915050565b600062000233826200023a565b9050919050565b600073ffffffffffffffffffffffffffffffffffffffff82169050919050565b7f6272696467653a207a65726f20746f6b656e2061646472657373000000000000600082015250565b6200028e8162000226565b81146200029a57600080fd5b50565b61329580620002ad6000396000f3fe608060405234801561001057600080fd5b506004361061012c5760003560e01c8063a6f9dae1116100ad578063c805f68b11610071578063c805f68b146102d3578063cb97be0c146102ef578063d51eab521461030d578063eda1122c14610329578063fc0c546a146103455761012c565b8063a6f9dae114610243578063a8b1a7a01461025f578063b59589d11461027b578063b69ef8a814610299578063bcfa2ecd146102b75761012c565b806341167b0f116100f457806341167b0f146101c757806341c0e1b5146101e357806367d42a8b146101ed5780638da5cb5b1461020957806396131049146102275761012c565b806301e64725146101315780630781fd2d1461016957806312424e3f14610185578063354030231461018f5780633d035e63146101ab575b600080fd5b61014b60048036038101906101469190612389565b610363565b60405161016099989796959493929190612848565b60405180910390f35b610183600480360381019061017e9190612418565b61043e565b005b61018d6104ea565b005b6101a960048036038101906101a49190612418565b6104ec565b005b6101c560048036038101906101c0919061246a565b6105e2565b005b6101e160048036038101906101dc91906123ee565b61095b565b005b6101eb610a9b565b005b61020760048036038101906102029190612389565b610b68565b005b610211610e81565b60405161021e91906127cd565b60405180910390f35b610241600480360381019061023c9190612337565b610ea5565b005b61025d60048036038101906102589190612337565b610f36565b005b61027960048036038101906102749190612389565b611077565b005b6102836112ac565b60405161029091906127cd565b60405180910390f35b6102a16112d2565b6040516102ae9190612a37565b60405180910390f35b6102d160048036038101906102cc9190612389565b611413565b005b6102ed60048036038101906102e89190612337565b61182f565b005b6102f76118c0565b6040516103049190612a37565b60405180910390f35b610327600480360381019061032291906123b2565b6118c6565b005b610343600480360381019061033e9190612389565b611b99565b005b61034d611e9e565b60405161035a91906127cd565b60405180910390f35b60056020528060005260406000206000915090508060000154908060010154908060020154908060030160009054906101000a900473ffffffffffffffffffffffffffffffffffffffff16908060040160009054906101000a900473ffffffffffffffffffffffffffffffffffffffff16908060050160009054906101000a900473ffffffffffffffffffffffffffffffffffffffff16908060060160009054906101000a900473ffffffffffffffffffffffffffffffffffffffff16908060070154908060080160009054906101000a900460ff16905089565b600160009054906101000a900473ffffffffffffffffffffffffffffffffffffffff1673ffffffffffffffffffffffffffffffffffffffff163373ffffffffffffffffffffffffffffffffffffffff16146104ce576040517f08c379a00000000000000000000000000000000000000000000000000000000081526004016104c590612997565b60405180910390fd5b80600460008282546104e09190612a84565b9250508190555050565b565b60008054906101000a900473ffffffffffffffffffffffffffffffffffffffff1673ffffffffffffffffffffffffffffffffffffffff163373ffffffffffffffffffffffffffffffffffffffff161461057a576040517f08c379a000000000000000000000000000000000000000000000000000000000815260040161057190612957565b60405180910390fd5b6105a8600260009054906101000a900473ffffffffffffffffffffffffffffffffffffffff16333084611ec4565b7f61212c581efa82306add65ab8495aa947dfbee14bd1e359f863fb4b458af4738816040516105d79190612a37565b60405180910390a150565b8060045411610626576040517f08c379a000000000000000000000000000000000000000000000000000000000815260040161061d90612977565b60405180910390fd5b600061063b4687338888888860035442611f4d565b905060006040518061012001604052808381526020014681526020018881526020013373ffffffffffffffffffffffffffffffffffffffff1681526020018773ffffffffffffffffffffffffffffffffffffffff1681526020018673ffffffffffffffffffffffffffffffffffffffff1681526020018573ffffffffffffffffffffffffffffffffffffffff1681526020018481526020016000600481111561070d577f4e487b7100000000000000000000000000000000000000000000000000000000600052602160045260246000fd5b815250905082600460008282546107249190612ada565b92505081905550806005600084815260200190815260200160002060008201518160000155602082015181600101556040820151816002015560608201518160030160006101000a81548173ffffffffffffffffffffffffffffffffffffffff021916908373ffffffffffffffffffffffffffffffffffffffff16021790555060808201518160040160006101000a81548173ffffffffffffffffffffffffffffffffffffffff021916908373ffffffffffffffffffffffffffffffffffffffff16021790555060a08201518160050160006101000a81548173ffffffffffffffffffffffffffffffffffffffff021916908373ffffffffffffffffffffffffffffffffffffffff16021790555060c08201518160060160006101000a81548173ffffffffffffffffffffffffffffffffffffffff021916908373ffffffffffffffffffffffffffffffffffffffff16021790555060e082015181600701556101008201518160080160006101000a81548160ff021916908360048111156108d5577f4e487b7100000000000000000000000000000000000000000000000000000000600052602160045260246000fd5b02179055509050506001600360008282546108f09190612a84565b92505081905550610925600260009054906101000a900473ffffffffffffffffffffffffffffffffffffffff16333086611ec4565b817fcee52149e680cf18643f7b7165939da8519ce7a2ba56f16f8c9430051947d0bc60405160405180910390a250505050505050565b600160009054906101000a900473ffffffffffffffffffffffffffffffffffffffff1673ffffffffffffffffffffffffffffffffffffffff163373ffffffffffffffffffffffffffffffffffffffff16146109eb576040517f08c379a00000000000000000000000000000000000000000000000000000000081526004016109e290612997565b60405180910390fd5b8060e0013560046000828254610a019190612a84565b925050819055508060056000836000013581526020019081526020016000208181610a2c91906131ae565b9050506000600560008360000135815260200190815260200160002060080160006101000a81548160ff02191690836004811115610a93577f4e487b7100000000000000000000000000000000000000000000000000000000600052602160045260246000fd5b021790555050565b60008054906101000a900473ffffffffffffffffffffffffffffffffffffffff1673ffffffffffffffffffffffffffffffffffffffff163373ffffffffffffffffffffffffffffffffffffffff1614610b29576040517f08c379a0000000000000000000000000000000000000000000000000000000008152600401610b2090612957565b60405180910390fd5b60008060009054906101000a900473ffffffffffffffffffffffffffffffffffffffff1690508073ffffffffffffffffffffffffffffffffffffffff16ff5b6000801b60056000838152602001908152602001600020600001541415610bc4576040517f08c379a0000000000000000000000000000000000000000000000000000000008152600401610bbb906129f7565b60405180910390fd5b60006004811115610bfe577f4e487b7100000000000000000000000000000000000000000000000000000000600052602160045260246000fd5b6005600083815260200190815260200160002060080160009054906101000a900460ff166004811115610c5a577f4e487b7100000000000000000000000000000000000000000000000000000000600052602160045260246000fd5b14610c9a576040517f08c379a0000000000000000000000000000000000000000000000000000000008152600401610c9190612917565b60405180910390fd5b6005600082815260200190815260200160002060040160009054906101000a900473ffffffffffffffffffffffffffffffffffffffff1673ffffffffffffffffffffffffffffffffffffffff163373ffffffffffffffffffffffffffffffffffffffff1614610d3e576040517f08c379a0000000000000000000000000000000000000000000000000000000008152600401610d35906128f7565b60405180910390fd5b60046005600083815260200190815260200160002060080160006101000a81548160ff02191690836004811115610d9e577f4e487b7100000000000000000000000000000000000000000000000000000000600052602160045260246000fd5b0217905550610e306005600083815260200190815260200160002060060160009054906101000a900473ffffffffffffffffffffffffffffffffffffffff166005600084815260200190815260200160002060040160009054906101000a900473ffffffffffffffffffffffffffffffffffffffff166005600085815260200190815260200160002060070154611f9a565b807fc8d555fa3119bda8627ad2f05ea3ddd7e227a70c80a77740cd4e395041cdeb026005600084815260200190815260200160002060070154604051610e769190612a37565b60405180910390a250565b60008054906101000a900473ffffffffffffffffffffffffffffffffffffffff1681565b60008054906101000a900473ffffffffffffffffffffffffffffffffffffffff1673ffffffffffffffffffffffffffffffffffffffff163373ffffffffffffffffffffffffffffffffffffffff1614610f33576040517f08c379a0000000000000000000000000000000000000000000000000000000008152600401610f2a90612957565b60405180910390fd5b50565b60008054906101000a900473ffffffffffffffffffffffffffffffffffffffff1673ffffffffffffffffffffffffffffffffffffffff163373ffffffffffffffffffffffffffffffffffffffff1614610fc4576040517f08c379a0000000000000000000000000000000000000000000000000000000008152600401610fbb90612957565b60405180910390fd5b600073ffffffffffffffffffffffffffffffffffffffff168173ffffffffffffffffffffffffffffffffffffffff161415611034576040517f08c379a000000000000000000000000000000000000000000000000000000000815260040161102b90612a17565b60405180910390fd5b806000806101000a81548173ffffffffffffffffffffffffffffffffffffffff021916908373ffffffffffffffffffffffffffffffffffffffff16021790555050565b6000801b600560008381526020019081526020016000206000015414156110d3576040517f08c379a00000000000000000000000000000000000000000000000000000000081526004016110ca906129f7565b60405180910390fd5b6000600481111561110d577f4e487b7100000000000000000000000000000000000000000000000000000000600052602160045260246000fd5b6005600083815260200190815260200160002060080160009054906101000a900460ff166004811115611169577f4e487b7100000000000000000000000000000000000000000000000000000000600052602160045260246000fd5b1461117357600080fd5b6005600082815260200190815260200160002060030160009054906101000a900473ffffffffffffffffffffffffffffffffffffffff1673ffffffffffffffffffffffffffffffffffffffff163373ffffffffffffffffffffffffffffffffffffffff1614611217576040517f08c379a000000000000000000000000000000000000000000000000000000000815260040161120e906128f7565b60405180910390fd5b60016005600083815260200190815260200160002060080160006101000a81548160ff02191690836004811115611277577f4e487b7100000000000000000000000000000000000000000000000000000000600052602160045260246000fd5b0217905550807f28fdbf064cf2f166e33d8499d81faacb22195b7ed6412ad44f8f2213a725ff5260405160405180910390a250565b600160009054906101000a900473ffffffffffffffffffffffffffffffffffffffff1681565b60008060009054906101000a900473ffffffffffffffffffffffffffffffffffffffff1673ffffffffffffffffffffffffffffffffffffffff163373ffffffffffffffffffffffffffffffffffffffff1614611363576040517f08c379a000000000000000000000000000000000000000000000000000000000815260040161135a90612957565b60405180910390fd5b600260009054906101000a900473ffffffffffffffffffffffffffffffffffffffff1673ffffffffffffffffffffffffffffffffffffffff166370a08231306040518263ffffffff1660e01b81526004016113be91906127cd565b60206040518083038186803b1580156113d657600080fd5b505afa1580156113ea573d6000803e3d6000fd5b505050506040513d601f19601f8201168201806040525081019061140e9190612441565b905090565b600160009054906101000a900473ffffffffffffffffffffffffffffffffffffffff1673ffffffffffffffffffffffffffffffffffffffff163373ffffffffffffffffffffffffffffffffffffffff16146114a3576040517f08c379a000000000000000000000000000000000000000000000000000000000815260040161149a90612997565b60405180910390fd5b6000801b600560008381526020019081526020016000206000015414156114ff576040517f08c379a00000000000000000000000000000000000000000000000000000000081526004016114f6906129f7565b60405180910390fd5b60006004811115611539577f4e487b7100000000000000000000000000000000000000000000000000000000600052602160045260246000fd5b6005600083815260200190815260200160002060080160009054906101000a900460ff166004811115611595577f4e487b7100000000000000000000000000000000000000000000000000000000600052602160045260246000fd5b148061163357506004808111156115d5577f4e487b7100000000000000000000000000000000000000000000000000000000600052602160045260246000fd5b6005600083815260200190815260200160002060080160009054906101000a900460ff166004811115611631577f4e487b7100000000000000000000000000000000000000000000000000000000600052602160045260246000fd5b145b611672576040517f08c379a000000000000000000000000000000000000000000000000000000000815260040161166990612917565b60405180910390fd5b600060048111156116ac577f4e487b7100000000000000000000000000000000000000000000000000000000600052602160045260246000fd5b6005600083815260200190815260200160002060080160009054906101000a900460ff166004811115611708577f4e487b7100000000000000000000000000000000000000000000000000000000600052602160045260246000fd5b14156117a3576005600082815260200190815260200160002060070154600460008282546117369190612ada565b9250508190555060026005600083815260200190815260200160002060080160006101000a81548160ff0219169083600481111561179d577f4e487b7100000000000000000000000000000000000000000000000000000000600052602160045260246000fd5b02179055505b6005600082815260200190815260200160002060080160009054906101000a900460ff1660048111156117ff577f4e487b7100000000000000000000000000000000000000000000000000000000600052602160045260246000fd5b817f42699927f028c38feb81605b93144df8fabf4b9abf36f5c9eef6e03811db3feb60405160405180910390a350565b60008054906101000a900473ffffffffffffffffffffffffffffffffffffffff1673ffffffffffffffffffffffffffffffffffffffff163373ffffffffffffffffffffffffffffffffffffffff16146118bd576040517f08c379a00000000000000000000000000000000000000000000000000000000081526004016118b490612957565b60405180910390fd5b50565b60045481565b600160009054906101000a900473ffffffffffffffffffffffffffffffffffffffff1673ffffffffffffffffffffffffffffffffffffffff163373ffffffffffffffffffffffffffffffffffffffff1614611956576040517f08c379a000000000000000000000000000000000000000000000000000000000815260040161194d90612997565b60405180910390fd5b6000801b600560008481526020019081526020016000206000015414156119b2576040517f08c379a00000000000000000000000000000000000000000000000000000000081526004016119a9906129f7565b60405180910390fd5b600160048111156119ec577f4e487b7100000000000000000000000000000000000000000000000000000000600052602160045260246000fd5b6005600084815260200190815260200160002060080160009054906101000a900460ff166004811115611a48577f4e487b7100000000000000000000000000000000000000000000000000000000600052602160045260246000fd5b14611a88576040517f08c379a0000000000000000000000000000000000000000000000000000000008152600401611a7f90612917565b60405180910390fd5b806005600084815260200190815260200160002060080160006101000a81548160ff02191690836004811115611ae7577f4e487b7100000000000000000000000000000000000000000000000000000000600052602160045260246000fd5b021790555060026004811115611b26577f4e487b7100000000000000000000000000000000000000000000000000000000600052602160045260246000fd5b816004811115611b5f577f4e487b7100000000000000000000000000000000000000000000000000000000600052602160045260246000fd5b1415611b9557600560008381526020019081526020016000206007015460046000828254611b8d9190612a84565b925050819055505b5050565b6000801b60056000838152602001908152602001600020600001541415611bf5576040517f08c379a0000000000000000000000000000000000000000000000000000000008152600401611bec906129f7565b60405180910390fd5b60026004811115611c2f577f4e487b7100000000000000000000000000000000000000000000000000000000600052602160045260246000fd5b6005600083815260200190815260200160002060080160009054906101000a900460ff166004811115611c8b577f4e487b7100000000000000000000000000000000000000000000000000000000600052602160045260246000fd5b14611ccb576040517f08c379a0000000000000000000000000000000000000000000000000000000008152600401611cc290612917565b60405180910390fd5b6005600082815260200190815260200160002060030160009054906101000a900473ffffffffffffffffffffffffffffffffffffffff1673ffffffffffffffffffffffffffffffffffffffff163373ffffffffffffffffffffffffffffffffffffffff1614611d6f576040517f08c379a0000000000000000000000000000000000000000000000000000000008152600401611d66906128f7565b60405180910390fd5b60036005600083815260200190815260200160002060080160006101000a81548160ff02191690836004811115611dcf577f4e487b7100000000000000000000000000000000000000000000000000000000600052602160045260246000fd5b0217905550611e4d600260009054906101000a900473ffffffffffffffffffffffffffffffffffffffff166005600084815260200190815260200160002060030160009054906101000a900473ffffffffffffffffffffffffffffffffffffffff166005600085815260200190815260200160002060070154611f9a565b807ff54a0422abcafe9e54e9db8d5fc96fc2e97bd10681b8b7ceb3b890c6dec6c8986005600084815260200190815260200160002060070154604051611e939190612a37565b60405180910390a250565b600260009054906101000a900473ffffffffffffffffffffffffffffffffffffffff1681565b611f47846323b872dd60e01b858585604051602401611ee5939291906127e8565b604051602081830303815290604052907bffffffffffffffffffffffffffffffffffffffffffffffffffffffff19166020820180517bffffffffffffffffffffffffffffffffffffffffffffffffffffffff8381831617835250505050612020565b50505050565b6000808a8a8a8a8a8a8a8a8a604051602001611f719998979695949392919061272a565b604051602081830303815290604052805190602001209050809150509998505050505050505050565b61201b8363a9059cbb60e01b8484604051602401611fb992919061281f565b604051602081830303815290604052907bffffffffffffffffffffffffffffffffffffffffffffffffffffffff19166020820180517bffffffffffffffffffffffffffffffffffffffffffffffffffffffff8381831617835250505050612020565b505050565b6000612082826040518060400160405280602081526020017f5361666545524332303a206c6f772d6c6576656c2063616c6c206661696c65648152508573ffffffffffffffffffffffffffffffffffffffff166120e79092919063ffffffff16565b90506000815111156120e257808060200190518101906120a29190612360565b6120e1576040517f08c379a00000000000000000000000000000000000000000000000000000000081526004016120d8906129d7565b60405180910390fd5b5b505050565b60606120f684846000856120ff565b90509392505050565b606082471015612144576040517f08c379a000000000000000000000000000000000000000000000000000000000815260040161213b90612937565b60405180910390fd5b61214d85612213565b61218c576040517f08c379a0000000000000000000000000000000000000000000000000000000008152600401612183906129b7565b60405180910390fd5b6000808673ffffffffffffffffffffffffffffffffffffffff1685876040516121b59190612713565b60006040518083038185875af1925050503d80600081146121f2576040519150601f19603f3d011682016040523d82523d6000602084013e6121f7565b606091505b5091509150612207828286612236565b92505050949350505050565b6000808273ffffffffffffffffffffffffffffffffffffffff163b119050919050565b6060831561224657829050612296565b6000835111156122595782518084602001fd5b816040517f08c379a000000000000000000000000000000000000000000000000000000000815260040161228d91906128d5565b60405180910390fd5b9392505050565b6000813590506122ac816131f3565b92915050565b6000815190506122c18161320a565b92915050565b6000813590506122d681613221565b92915050565b6000813590506122eb81613238565b92915050565b6000610120828403121561230457600080fd5b81905092915050565b60008135905061231c81613248565b92915050565b60008151905061233181613248565b92915050565b60006020828403121561234957600080fd5b60006123578482850161229d565b91505092915050565b60006020828403121561237257600080fd5b6000612380848285016122b2565b91505092915050565b60006020828403121561239b57600080fd5b60006123a9848285016122c7565b91505092915050565b600080604083850312156123c557600080fd5b60006123d3858286016122c7565b92505060206123e4858286016122dc565b9150509250929050565b6000610120828403121561240157600080fd5b600061240f848285016122f1565b91505092915050565b60006020828403121561242a57600080fd5b60006124388482850161230d565b91505092915050565b60006020828403121561245357600080fd5b600061246184828501612322565b91505092915050565b600080600080600060a0868803121561248257600080fd5b60006124908882890161230d565b95505060206124a18882890161229d565b94505060406124b28882890161229d565b93505060606124c38882890161229d565b92505060806124d48882890161230d565b9150509295509295909350565b6124ea81612b0e565b82525050565b6125016124fc82612b0e565b612d52565b82525050565b61251081612b2c565b82525050565b600061252182612a52565b61252b8185612a68565b935061253b818560208601612bf1565b80840191505092915050565b61255081612ba9565b82525050565b600061256182612a5d565b61256b8185612a73565b935061257b818560208601612bf1565b61258481612e66565b840191505092915050565b600061259c601483612a73565b91506125a782612e9e565b602082019050919050565b60006125bf601583612a73565b91506125ca82612ec7565b602082019050919050565b60006125e2602683612a73565b91506125ed82612ef0565b604082019050919050565b6000612605601283612a73565b915061261082612f3f565b602082019050919050565b6000612628602283612a73565b915061263382612f68565b604082019050919050565b600061264b601283612a73565b915061265682612fb7565b602082019050919050565b600061266e601d83612a73565b915061267982612fe0565b602082019050919050565b6000612691602a83612a73565b915061269c82613009565b604082019050919050565b60006126b4601883612a73565b91506126bf82613058565b602082019050919050565b60006126d7601483612a73565b91506126e282613081565b602082019050919050565b6126f681612b69565b82525050565b61270d61270882612b69565b612d76565b82525050565b600061271f8284612516565b915081905092915050565b6000612736828c6126fc565b602082019150612746828b6126fc565b602082019150612756828a6124f0565b60148201915061276682896124f0565b60148201915061277682886124f0565b60148201915061278682876124f0565b60148201915061279682866126fc565b6020820191506127a682856126fc565b6020820191506127b682846126fc565b6020820191508190509a9950505050505050505050565b60006020820190506127e260008301846124e1565b92915050565b60006060820190506127fd60008301866124e1565b61280a60208301856124e1565b61281760408301846126ed565b949350505050565b600060408201905061283460008301856124e1565b61284160208301846126ed565b9392505050565b60006101208201905061285e600083018c612507565b61286b602083018b6126ed565b612878604083018a6126ed565b61288560608301896124e1565b61289260808301886124e1565b61289f60a08301876124e1565b6128ac60c08301866124e1565b6128b960e08301856126ed565b6128c7610100830184612547565b9a9950505050505050505050565b600060208201905081810360008301526128ef8184612556565b905092915050565b600060208201905081810360008301526129108161258f565b9050919050565b60006020820190508181036000830152612930816125b2565b9050919050565b60006020820190508181036000830152612950816125d5565b9050919050565b60006020820190508181036000830152612970816125f8565b9050919050565b600060208201905081810360008301526129908161261b565b9050919050565b600060208201905081810360008301526129b08161263e565b9050919050565b600060208201905081810360008301526129d081612661565b9050919050565b600060208201905081810360008301526129f081612684565b9050919050565b60006020820190508181036000830152612a10816126a7565b9050919050565b60006020820190508181036000830152612a30816126ca565b9050919050565b6000602082019050612a4c60008301846126ed565b92915050565b600081519050919050565b600081519050919050565b600081905092915050565b600082825260208201905092915050565b6000612a8f82612b69565b9150612a9a83612b69565b9250827fffffffffffffffffffffffffffffffffffffffffffffffffffffffffffffffff03821115612acf57612ace612d80565b5b828201905092915050565b6000612ae582612b69565b9150612af083612b69565b925082821015612b0357612b02612d80565b5b828203905092915050565b6000612b1982612b49565b9050919050565b60008115159050919050565b6000819050919050565b6000819050612b44826131df565b919050565b600073ffffffffffffffffffffffffffffffffffffffff82169050919050565b6000819050919050565b6000612b7e82612bbb565b9050919050565b6000612b9082612b2c565b9050919050565b6000612ba282612b36565b9050919050565b6000612bb482612b36565b9050919050565b6000612bc682612bcd565b9050919050565b6000612bd882612b49565b9050919050565b6000612bea82612b69565b9050919050565b60005b83811015612c0f578082015181840152602081019050612bf4565b83811115612c1e576000848401525b50505050565b600081016000830180612c3681612e24565b9050612c428184613168565b505050600181016020830180612c5781612e50565b9050612c6381846131bc565b505050600281016040830180612c7881612e50565b9050612c8481846131bc565b505050600381016060830180612c9981612e0e565b9050612ca58184613145565b505050600481016080830180612cba81612e0e565b9050612cc68184613145565b5050506005810160a0830180612cdb81612e0e565b9050612ce78184613145565b5050506006810160c0830180612cfc81612e0e565b9050612d088184613145565b5050506007810160e0830180612d1d81612e50565b9050612d2981846131bc565b50505060088101610100830180612d3f81612e3a565b9050612d4b818461318b565b5050505050565b6000612d5d82612d64565b9050919050565b6000612d6f82612e84565b9050919050565b6000819050919050565b7f4e487b7100000000000000000000000000000000000000000000000000000000600052601160045260246000fd5b7f4e487b7100000000000000000000000000000000000000000000000000000000600052602160045260246000fd5b6000819050919050565b6000612df382612e91565b9050919050565b6000819050919050565b6000819050919050565b60008135612e1b816131f3565b80915050919050565b60008135612e3181613221565b80915050919050565b60008135612e4781613238565b80915050919050565b60008135612e5d81613248565b80915050919050565b6000601f19601f8301169050919050565b60008160001b9050919050565b60008160601b9050919050565b60008160001c9050919050565b7f6272696467653a20696e76616c69642075736572000000000000000000000000600082015250565b7f6272696467653a20696e76616c69642073746174650000000000000000000000600082015250565b7f416464726573733a20696e73756666696369656e742062616c616e636520666f60008201527f722063616c6c0000000000000000000000000000000000000000000000000000602082015250565b7f6272696467653a204f6e6c79206f776e65720000000000000000000000000000600082015250565b7f6272696467653a206e6f2073756666696369656e7420706565722062616c616e60008201527f6365000000000000000000000000000000000000000000000000000000000000602082015250565b7f6272696467653a206f6e6c792072656c61790000000000000000000000000000600082015250565b7f416464726573733a2063616c6c20746f206e6f6e2d636f6e7472616374000000600082015250565b7f5361666545524332303a204552433230206f7065726174696f6e20646964206e60008201527f6f74207375636365656400000000000000000000000000000000000000000000602082015250565b7f6272696467653a207265636f7264206e6f7420666f756e640000000000000000600082015250565b7f6272696467653a207a65726f2061646472657373000000000000000000000000600082015250565b600060ff6130b784612e77565b9350801983169250808416831791505092915050565b600073ffffffffffffffffffffffffffffffffffffffff6130ed84612e77565b9350801983169250808416831791505092915050565b60007fffffffffffffffffffffffffffffffffffffffffffffffffffffffffffffffff61312f84612e77565b9350801983169250808416831791505092915050565b61314e82612b73565b61316161315a82612dde565b83546130cd565b8255505050565b61317182612b85565b61318461317d82612de8565b8354613103565b8255505050565b61319482612b97565b6131a76131a082612dfa565b83546130aa565b8255505050565b6131b88282612c24565b5050565b6131c582612bdf565b6131d86131d182612e04565b8354613103565b8255505050565b600581106131f0576131ef612daf565b5b50565b6131fc81612b0e565b811461320757600080fd5b50565b61321381612b20565b811461321e57600080fd5b50565b61322a81612b2c565b811461323557600080fd5b50565b6005811061324557600080fd5b50565b61325181612b69565b811461325c57600080fd5b5056fea264697066735822122048fb673c416b71e8f4231ff01c0a2cc9729335e42bceda47b8f38238f9d9d92664736f6c63430008040033",
  "linkReferences": {},
  "deployedLinkReferences": {}
}